:1000000045C0000053C0000051C000004FC00000B8
:100010004DC000004BC0000049C0000047C00000B8
:1000200045C0000043C0000041C000003FC00000C8
:100030003DC000003BC0000039C0000037C00000D8
:1000400035C0000033C0000031C000002FC00000E8
:100050002DC000002BC0000029C0000027C00000F8
:10006000B9C0000023C0000021C000001FC0000074
:100070001DC000001BC0000019C0000017C0000018
:1000800015C0000013C0000011C0000011241FBEE5
:10009000CFEFD0E4DEBFCDBF21E0A0E0B1E001C0F2
:1000A0001D92A930B207E1F774D07FC353C0E1E8D5
:1000B000F0E080818860808380818560808388E033
:1000C0009DE39093890080938800EFE6F0E08081C3
:1000D00082608083089581B18A7E81B952988BB104
:1000E0008C608BB90895ECE7F0E080818F77808396
:1000F00080818064808380818F7D8083EAE7F0E067
:1001000080818068808380818F7D8083808188600A
:1001100080838081866080830895E9E6F0E08081B5
:100120008360808380818C6080838DB383608DBB8E
:10013000789408950FB6F894A8958091600088612E
:1001400080936000109260000FBEC5DFCCDFE5DF5A
:10015000AECF08951F920F920FB60F921124FFCFCA
:10016000CF93DF931F92CDB7DEB78983ECE7F0E042
:10017000808199812081887F9770892B822B808351
:10018000EAE7F0E08081806480830F90DF91CF9177
:10019000089594B780910801892B80930801CADFE4
:1001A000CAE7D0E0888186FDFDCF80910201909161
:1001B00003018230910541F08330910541F00197B0
:1001C00089F780E0CDDFEECF82E0CADFEBCF84E0BD
:1001D000C7DFE8CF1F920F920FB60F9211240BB614
:1001E0000F922F933F934F935F936F937F938F93D0
:1001F0009F93AF93BF93EF93FF938091780090E02C
:100200009093010180930001209179008091000179
:1002100090910101922B90930101809300016091D4
:1002200000017091010180E090E0CED120E030E04B
:1002300040EA50E457D220E030E040E85AE352D29E
:100240006093040170930501809306019093070168
:1002500080910201909103018230910509F44BC015
:100260008330910509F48CC0019709F0CDC06091ED
:1002700004017091050180910601909107012AE91E
:1002800039E949E15FE338D12DEC3CEC4CE45DE326
:1002900029D2609304017093050180930601909325
:1002A0000701209104013091050140910601509110
:1002B000070160E070E080E89FE31ED160930401D5
:1002C00070930501809306019093070160910401EA
:1002D00070910501809106019091070120E030E0C6
:1002E00040E85EE3A4D0609304017093050180931D
:1002F00006019093070160910401709105018091BE
:100300000601909107012AE939E949E15FE3F4D058
:100310002DEC3CEC4CE45DE3E5D16093040170937B
:10032000050180930601909307012091040130910B
:100330000501409106015091070160E070E080E8FE
:100340009FE3DAD060930401709305018093060166
:10035000909307016091040170910501809106015D
:100360009091070120E030E040E85EE360D06093C8
:10037000040170930501809306019093070144C026
:10038000609104017091050180910601909107012F
:100390002AE939E949E15FE3AFD02DEC3CEC4CE4CC
:1003A0005DE3A0D160930401709305018093060181
:1003B00090930701209104013091050140910601BD
:1003C0005091070160E070E080E090E495D0609388
:1003D00004017093050180930601909307016091D9
:1003E000040170910501809106019091070120E0C0
:1003F00030E040E85EE31BD0609304017093050198
:100400008093060190930701FF91EF91BF91AF9107
:100410009F918F917F916F915F914F913F912F911C
:100420000F900BBE0F900FBE0F901F901895505855
:10043000BB27AA270ED01CC10DD130F012D120F05D
:1004400031F49F3F11F41EF402C10EF4E095E7FB76
:10045000F8C0E92F1ED180F3BA176207730784072B
:10046000950718F071F49EF536C10EF4E0950B2E49
:10047000BA2FA02D0B01B90190010C01CA01A001F6
:100480001124FF27591B99F0593F50F4503E68F151
:100490001A16F040A22F232F342F4427585FF3CF92
:1004A000469537952795A795F0405395C9F77EF463
:1004B0001F16BA0B620B730B840BBAF09150A1F0AC
:1004C000FF0FBB1F661F771F881FC2F70EC0BA0F32
:1004D000621F731F841F48F4879577956795B795BA
:1004E000F7959E3F08F0B3CF9395880F08F09927B2
:1004F000EE0F9795879508950CD0BAC0B2D040F012
:10050000A9D030F021F45F3F19F09BC05111E4C035
:100510009EC0BFD098F39923C9F35523B1F3951B1F
:10052000550BBB27AA2762177307840738F09F5F14
:100530005F4F220F331F441FAA1FA9F333D00E2E83
:100540003AF0E0E830D091505040E695001CCAF7F0
:1005500029D0FE2F27D0660F771F881FBB1F2617B5
:1005600037074807AB07B0E809F0BB0B802DBF0188
:10057000FF2793585F4F2AF09E3F510568F061C0F6
:10058000ABC05F3FECF3983EDCF3869577956795BB
:10059000B795F7959F5FC9F7880F911D9695879539
:1005A00097F90895E1E0660F771F881FBB1F621758
:1005B00073078407BA0720F0621B730B840BBA0B16
:1005C000EE1F88F7E0950895E89409C097FB3EF484
:1005D00090958095709561957F4F8F4F9F4F992390
:1005E000A9F0F92F96E9BB279395F695879577950E
:1005F0006795B795F111F8CFFAF4BB0F11F460FFCE
:100600001BC06F5F7F4F8F4F9F4F16C0882311F025
:1006100096E911C0772321F09EE8872F762F05C039
:10062000662371F096E8862F70E060E02AF09A95D4
:10063000660F771F881FDAF7880F9695879597F9C9
:10064000089597F99F6780E870E060E008959FEF54
:1006500080EC089500240A94161617061806090659
:10066000089500240A941216130614060506089528
:10067000092E0394000C11F4882352F0BB0F40F4B0
:10068000BF2B11F460FF04C06F5F7F4F8F4F9F4FF0
:10069000089557FD9058440F551F59F05F3F71F072
:1006A0004795880F97FB991F61F09F3F79F08795D9
:1006B0000895121613061406551FF2CF4695F1DF62
:1006C00008C0161617061806991FF1CF86957105F2
:1006D000610508940895E894BB2766277727CB0126
:1006E00097F908950BD0C4CFB5DF28F0BADF18F022
:1006F000952309F0A6CFABCF1124EECFCADFA0F32C
:10070000959FD1F3950F50E0551F629FF001729FA6
:10071000BB27F00DB11D639FAA27F00DB11DAA1FC5
:10072000649F6627B00DA11D661F829F2227B00D12
:10073000A11D621F739FB00DA11D621F839FA00D9D
:10074000611D221F749F3327A00D611D231F849FED
:10075000600D211D822F762F6A2F11249F57504044
:100760008AF0E1F088234AF0EE0FFF1FBB1F661FDF
:10077000771F881F91505040A9F79E3F510570F098
:1007800060CFAACF5F3FECF3983EDCF38695779578
:100790006795B795F795E7959F5FC1F7FE2B880F93
:0E07A000911D9695879597F90895F894FFCFCF
:00000001FF
