S019000073656E736F726D6F64756C5F61746D656C2E73726563DE
S113000045C0000060C000005EC000005CC000008D
S11300105AC0000058C0000056C0000054C0000080
S113002052C0000050C000004EC000004CC0000090
S11300304AC0000048C0000046C0000044C00000A0
S113004042C0000040C000003EC000003CC00000B0
S11300503AC0000038C0000036C0000034C00000C0
S113006032C0000030C00000EFC000002CC000000F
S11300702AC0000028C0000026C0000024C00000E0
S113008022C0000020C000001EC0000011241FBEBA
S1130090CFEFD0E4DEBFCDBF11E0A0E0B1E0E4E2F9
S11300A0F5E000E00BBF02C007900D92A432B10747
S11300B0D9F721E0A4E2B1E001C01D92A734B20750
S11300C0E1F778D02DC29CCF81B18A7E81B90E9898
S11300D082B1806C82B90895ECE7F0E080818F777B
S11300E0808380818064808380818F7D8083EAE740
S11300F0F0E080818068808380818F7D808380812F
S11301008860808380818660808308950FB6F89428
S1130110A8958091600088618093600010926000CF
S11301200FBED2DFD9DF6ED0789483E080932A01AA
S113013080933A01089580E480937C0087E880935B
S11301407A000895ECE7F0E09081987F8770892B1E
S11301508083EAE7F0E0808180648083808186FD8B
S1130160FDCF80917800909179000895EF92FF92ED
S11301700F931F93CF93DF937B01EA018901E2DFA1
S113018021E08130924008F420E0F8018081882346
S113019011F0108207C08881281721F0F7018081AF
S11301A08F5F80832883DF91CF911F910F91FF9000
S11301B0EF90089594B780912F01892B80932F019C
S11301C08FEF84B9A3DFB7DFC1E3D1E021E031E0F1
S11301D045E251E067E271E086E0C8DF20E031E00B
S11301E044E251E066E271E087E0C0DF80912601DD
S11301F09091270198838983E9CF10922701109267
S11302002601089585E48093BC008AE68093BA00B1
S11302100895E0913701F0E08091BB00E15CFE4F6E
S11302208083809137018F5F8093370180913701FC
S1130230823020F485EC8093BC00089585E8809397
S1130240BC001092370108951F920F920FB60F92BF
S113025011240BB60F922F933F934F935F936F9399
S11302607F938F939F93AF93BF93EF93FF9380916B
S1130270B900887F803909F4E7C0B8F4803709F4FD
S1130280B3C048F4803609F4A3C0883609F4A6C084
S11302908111FCC0EDC0803809F4B2C0883809F47B
S11302A0CCC0883709F0F2C0A5C0803BD9F148F42E
S11302B0803A09F4E3C0883A99F0883909F0E6C035
S11302C0CAC0803C09F478C020F4883B09F44DC0CE
S11302D0DDC0883C09F476C0883F09F4C3C0D6C0A9
S11302E080913001813089F4E0913001F0E0EF5CDD
S11302F0FE4F80818093BB00109230017EDF85E841
S11303008093BC0081E085B90DC0E0913001F0E03C
S1130310EF5CFE4F80818093BB0085EC8093BC0032
S113032082E085B980913001813089F4E091300117
S1130330F0E0EF5CFE4F80818093BB0010923001AF
S11303405CDF85E88093BC0083E085B9A1C0E091BF
S11303503001F0E0EF5CFE4F80818093BB0085ECC0
S11303608093BC0084E085B993C0809130018130D2
S113037089F4E0913001F0E0EF5CFE4F80818093DE
S1130380BB001092300139DF85E88093BC0085E022
S113039085B912C0E0913001F0E0EF5CFE4F80813E
S11303A08093BB00809130018F5F8093300185EC96
S11303B08093BC0086E085B985EC8093BC0087E01F
S11303C085B966C085EC8093BC0088E085B960C0BF
S11303D085EC8093BC0089E085B95AC085EC809394
S11303E0BC008AE085B954C085EC8093BC008BE0E6
S11303F085B94EC085EC8093BC008CE085B948C0BB
S1130400E0913701F0E08091BB00E15CFE4F808316
S1130410809137018F5F809337018091370182305B
S113042030F485EC8093BC008DE085B931C085E85B
S11304308093BC008EE085B92BC0EBDE85EC809305
S1130440BC008FE085B924C0E4DE80E185B985EC89
S11304508093BC001DC0DDDE85EC8093BC0081E18F
S113046085B916C082E091E02BD082E185B910C035
S113047085EC8093BC0083E185B90AC084E185B929
S11304801092370185EC8093BC0002C085E185B9E8
S1130490ECEBF0E0808180688083FF91EF91BF9165
S11304A0AF919F918F917F916F915F914F913F9108
S11304B02F910F900BBE0F900FBE0F901F901895A9
S11304C00F931F93CF93DF93E0914301F091440185
S11304D0238121FF1BC08C01D0E0C0E0F801819191
S11304E08F016091430170914401DB011896ED91F5
S11304F0FC911997882331F00995892B79F3DFEF63
S1130500CFEFECCF8AE00995892B19F08FEF9FEF9D
S113051002C08D2F9C2FDF91CF911F910F910895D1
S1070520F894FFCF79
S1130524010154574920736C6176652064657669CA
S1130534636520646964206E6F7420726573706FE0
S10705446E640000DD
S9030000FC
