:1000000045C0000060C000005EC000005CC0000091
:100010005AC0000058C0000056C0000054C0000084
:1000200052C0000050C000004EC000004CC0000094
:100030004AC0000048C0000046C0000044C00000A4
:1000400042C0000040C000003EC000003CC00000B4
:100050003AC0000038C0000036C0000034C00000C4
:1000600032C0000030C0000052C000002CC00000B0
:100070002AC0000028C0000026C0000024C00000E4
:1000800022C0000020C000001EC0000011241FBEBE
:10009000CFEFD0E4DEBFCDBF11E0A0E0B1E0ECE9EE
:1000A000F8E000E00BBF02C007900D92A231B1074B
:1000B000D9F721E0A2E1B1E001C01D92AA35B20753
:1000C000E1F728D1E9C39CCF85EC8093BC0084E89C
:1000D0008093BA0078940895E0911201F0E0809145
:1000E000BB00EC5CFE4F8083809112018F5F809398
:1000F000120180911201803220F485EC8093BC00C3
:10010000089585E88093BC001092120108951F9213
:100110000F920FB60F9211240BB60F922F933F93AD
:100120004F935F936F937F938F939F93AF93BF93FF
:10013000EF93FF938091B900887F803909F4BFC0A5
:10014000B8F4803709F4CEC048F4803609F491C081
:10015000883609F492C08111C4C0BBC0803809F44C
:1001600090C0883809F4A6C0883709F0BAC0BAC070
:10017000803B09F43FC048F4803A09F4AEC0883AA5
:1001800099F0883909F0ADC09FC0803C09F469C07E
:1001900020F4883B09F44AC0A4C0883C09F465C037
:1001A000883F09F49FC09DC0E0911301F0E0EC5E30
:1001B000FE4F80818093BB008091BA0086951F928C
:1001C0008F9380E091E09F938F93A6D0809113014D
:1001D0000F900F900F900F90803219F4109213012E
:1001E00005C0809113018F5F8093130185EC80938C
:1001F000BC0078C0809113018F3161F4E09113014C
:10020000F0E0EC5EFE4F80818093BB0085E8809338
:10021000BC0068C0E0911301F0E0EC5EFE4F80810D
:100220008093BB0085EC8093BC005CC0809113017F
:100230008F3161F4E0911301F0E0EC5EFE4F8081BC
:100240008093BB0085E88093BC000BC0E091130154
:10025000F0E0EC5EFE4F80818093BB0085EC8093E4
:10026000BC0085EC8093BC003DC085EC8093BC0055
:1002700039C085EC8093BC0035C085EC8093BC0010
:1002800031C0E0911201F0E08091BB00EC5CFE4FC8
:100290008083809112018F5F8093120180911201FF
:1002A0008F3120F485EC8093BC001CC085E88093DE
:1002B000BC0018C011DF85EC8093BC0013C00CDFBC
:1002C00085EC8093BC000EC007DF85EC8093BC00FA
:1002D00009C085EC8093BC0005C085EC8093BC0010
:1002E00001C0F2DEECEBF0E0808180688083FF915A
:1002F000EF91BF91AF919F918F917F916F915F919E
:100300004F913F912F910F900BBE0F900FBE0F900A
:100310001F901895D9DEFFCFCF93DF93CDB7DEB70F
:10032000AE014B5F5F4FFA0161917191AF01809116
:1003300056019091570103D0DF91CF9108952F92EC
:100340003F924F925F926F927F928F929F92AF9265
:10035000BF92CF92DF92EF92FF920F931F93CF93B2
:10036000DF93CDB7DEB72B970FB6F894DEBF0FBE85
:10037000CDBF6C017B018A01FC011782168283814B
:1003800081FFBFC1CE0101963C01F6019381F701C7
:1003900093FD859193FF81917F01882309F4ADC17D
:1003A000853239F493FD859193FF81917F018532E8
:1003B00021F4B60190E0D6D1E8CF912C212C312C3C
:1003C000FFE1F315D8F08B3279F038F4803279F010
:1003D0008332A1F4232D20611DC08D3261F0803362
:1003E00069F4232D216016C0832D8260382EE32D01
:1003F000E4603E2E2AC0F32DF8601DC037FC2DC0EE
:1004000020ED280F2A3040F08E32B9F436FC75C149
:10041000232D2064322E19C036FE06C08AE0989E35
:10042000200D1124922E11C0EAE02E9E200D1124E1
:10043000222EF32DF0623F2E08C08C3621F4832D3E
:100440008068382E02C0883641F4F70193FD85910B
:1004500093FF81917F018111B3CF982F9F7D955498
:10046000933028F40C5F1F4F9FE399830DC08336B0
:1004700031F0833771F0833509F055C020C0F801A1
:10048000808189830E5F1F4F88248394912C5301B0
:1004900012C02801F2E04F0E511CF801A080B1807B
:1004A00036FE03C0692D70E002C06FEF7FEFC5011B
:1004B0004ED14C018201F32DFF773F2E15C028014C
:1004C00022E0420E511CF801A080B18036FE03C02C
:1004D000692D70E002C06FEF7FEFC5012DD14C0197
:1004E000F32DF0683F2E820133FC19C0822D90E07D
:1004F00088169906A0F4B60180E290E033D12A94E0
:10050000F5CFF50137FC859137FE81915F01B6018A
:1005100090E028D121102A9421E0821A91088114B8
:10052000910479F7E1C0843611F0893639F5F80184
:1005300037FE07C060817181828193810C5F1F4FFC
:1005400008C060817181072E000C880B990B0E5F2B
:100550001F4FF32DFF763F2E97FF09C09095809592
:10056000709561957F4F8F4F9F4FF0683F2E2AE027
:1005700030E0A30133D1882E861844C0853731F48A
:10058000232D2F7EB22E2AE030E025C0932D997FB7
:10059000B92E8F36C1F018F4883579F0AEC08037A7
:1005A00019F0883721F0A9C0E92FE061BE2EB4FE12
:1005B0000DC0FB2DF460BF2E09C034FE0AC0292FE8
:1005C0002660B22E06C028E030E005C020E130E011
:1005D00002C020E132E0F801B7FE07C060817181FE
:1005E000828193810C5F1F4F06C06081718180E022
:1005F00090E00E5F1F4FA301F1D0882E8618FB2DCF
:10060000FF773F2E36FE0DC0232D2E7FA22E89149C
:1006100058F434FE0BC032FC09C0832D8E7EA82E08
:1006200005C0B82CA32C03C0B82C01C0B92CA4FE63
:100630000FC0FE01E80DF11D8081803321F49A2D59
:10064000997EA92E09C0A2FE06C0B394B39404C03B
:100650008A2D867809F0B394A3FC10C0A0FE06C0D2
:10066000B21480F4280C922C9B180DC0B21458F4CC
:10067000B60180E290E076D0B394F8CFB21418F4CB
:100680002B1802C0982C212CA4FE0FC0B60180E3C9
:1006900090E068D0A2FE16C0A1FC03C088E790E0FD
:1006A00002C088E590E0B6010CC08A2D867851F032
:1006B000A1FE02C08BE201C080E2A7FC8DE2B60180
:1006C00090E050D0891430F4B60180E390E04AD035
:1006D0009A94F8CF8A94F301E80DF11D8081B60158
:1006E00090E040D08110F6CF222009F44ECEB60122
:1006F00080E290E037D02A94F7CFF6018681978187
:1007000002C08FEF9FEF2B960FB6F894DEBF0FBE9F
:10071000CDBFDF91CF911F910F91FF90EF90DF90B0
:10072000CF90BF90AF909F908F907F906F905F9091
:100730004F903F902F900895FC01059061507040BC
:100740000110D8F7809590958E0F9F1F0895FC019A
:100750006150704001900110D8F7809590958E0FF0
:100760009F1F08950F931F93CF93DF93FB01238166
:1007700021FD03C08FEF9FEF2CC022FF16C04681E2
:100780005781248135814217530744F4A081B181F8
:100790009D012F5F3F4F318320838C9326813781CA
:1007A0002F5F3F4F3783268314C08B01EC01FB0181
:1007B0000084F185E02D0995892BE1F6D801169684
:1007C0008D919C911797019617969C938E931697EF
:1007D000CE01DF91CF911F910F910895FA01AA27C1
:1007E000283051F1203181F1E8946F936E7F6E5F74
:1007F0007F4F8F4F9F4FAF4FB1E03ED0B4E03CD022
:10080000670F781F891F9A1FA11D680F791F8A1F04
:10081000911DA11D6A0F711D811D911DA11D20D06B
:1008200009F468943F912AE0269F11243019305D25
:100830003193DEF6CF010895462F4770405D419316
:10084000B3E00FD0C9F7F6CF462F4F70405D4A3363
:1008500018F0495D31FD4052419302D0A9F7EACF2B
:10086000B4E0A6959795879577956795BA95C9F75A
:1008700000976105710508959B01AC010A2E06944D
:100880005795479537952795BA95C9F7620F731F06
:0C089000841F951FA01D0895F894FFCF51
:10089C00526563656976656420534C413A2025782E
:0208AC000A0040
:00000001FF
