S019000073656E736F726D6F64756C5F61746D656C2E73726563DE
S113000045C0000060C000005EC000005CC000008D
S11300105AC0000058C0000056C0000054C0000080
S113002052C0000050C000004EC000004CC0000090
S11300304AC0000048C0000046C0000044C00000A0
S113004042C0000040C000003EC000003CC00000B0
S11300503AC0000038C0000036C0000034C00000C0
S1130060E4C0000030C000002FC200002CC000001B
S11300702AC0000028C0000026C0000024C00000E0
S113008022C0000020C000001EC0000011241FBEBA
S1130090CFEFD0E4DEBFCDBF11E0A0E0B1E0EAE1F4
S11300A0FBE000E00BBF02C007900D92A432B10741
S11300B0D9F721E0A4E2B1E001C01D92AA33B2074E
S11300C0E1F764D028C543C081B18A7E81B95298D2
S11300D08BB18C608BB90895ECE7F0E080818F7769
S11300E0808380818064808380818F7D8083EAE740
S11300F0F0E080818068808380818F7D808380812F
S1130100886080838081866080830895E9E6F0E0DA
S11301108081816080838081846080838DB38360EB
S11301208DBB08950FB6F894A895809160008861FE
S113013080936000109260000FBEC6DFCDDFE6DF63
S1130140A1D110922A0110922F01789408951F9240
S11301500F920FB60F921124FFCFCF93DF931F920C
S1130160CDB7DEB78983ECE7F0E080819981208107
S1130170887F9770892B822B8083EAE7F0E0808167
S1130180806480830F90DF91CF91089594B780911C
S11301902901892B809329018FEF84B9C3DF0F2EA6
S11301A0FAE7CF2ED12CF02DEE24E394CBE2D1E06C
S11301B00F2EF6E0FF2EF02D05E018E0F601808109
S11301C086FD1FC080912401823061F0833091F05C
S11301D08130A9F480E0C1DF809124018F5F809396
S11301E024010FC082E0B9DF809124018F5F8093E6
S11301F0240107C084E0B1DFE092240102C0E09250
S11302002401809100018091010180912501909148
S11302102601A0912701B091280180912401F88240
S113022084E089830A831B83C9CF1F920F920FB680
S11302300F9211240BB60F922F933F934F935F931A
S11302406F937F938F939F93AF93BF93EF93FF939A
S1130250CF93DF9300D0CDB7DEB71A821982809195
S1130260780090E09A8389832091790089819A812A
S1130270922B9A83898369817A8180E090E02AD3E2
S113028020E030E040EA50E4B3D320E030E040E83E
S11302905AE3AED36093250170932601809327011E
S11302A09093280180912401823009F44BC083305B
S11302B009F48DC0813009F0CEC0609125017091A0
S11302C0260180912701909128012AE939E949E121
S11302D05FE398D22DEC3CEC4CE45DE389D360936E
S11302E02501709326018093270190932801209182
S11302F0250130912601409127015091280160E0A9
S113030070E080E89FE37ED260932501709326011C
S11303108093270190932801609125017091260113
S1130320809127019091280120E030E040E85EE3CD
S113033004D2609325017093260180932701909342
S1130340280189C0609125017091260180912701BF
S1130350909128012AE939E949E15FE353D22DEC70
S11303603CEC4CE45DE344D3609325017093260197
S11303708093270190932801209125013091260133
S1130380409127015091280160E070E080E89FE3EC
S113039039D26093250170932601809327019093AD
S11303A02801609125017091260180912701909187
S11303B0280120E030E040E85EE3BFD160932501EE
S11303C070932601809327019093280144C0609183
S11303D025017091260180912701909128012AE935
S11303E039E949E15FE30ED22DEC3CEC4CE45DE3EA
S11303F0FFD2609325017093260180932701909387
S11304002801209125013091260140912701509126
S1130410280160E070E080E090E4F4D1609325016D
S11304207093260180932701909328016091250100
S113043070912601809127019091280120E030E0FD
S113044040E85EE37AD1609325017093260180939E
S11304502701909328010F900F90DF91CF91FF9186
S1130460EF91BF91AF919F918F917F916F915F9128
S11304704F913F912F910F900BBE0F900FBE0F9095
S11304801F90189585E48093BC008AE68093BA0097
S11304900895E0912F01F0E08091BB00E05DFE4FF4
S11304A0808380912F018F5F80932F0180912F0192
S11304B0843020F485EC8093BC00089585E8809313
S11304C0BC0010922F0108951F920F920FB60F9245
S11304D011240BB60F922F933F934F935F936F9317
S11304E07F938F939F93AF93BF93EF93FF938091E9
S11304F0B900887F803909F4E4C0B8F4803709F47E
S1130500B0C048F4803609F4A0C0883609F4A3C00A
S11305108111F9C0EAC0803809F4AFC0883809F401
S1130520C9C0883709F0EFC0A2C0803BD1F148F4BC
S1130530803A09F4E0C0883A99F0883909F0E3C0B8
S1130540C7C0803C09F475C020F4883B09F44BC053
S1130550DAC0883C09F473C0883F09F4C0C0D3C032
S113056080912A01833081F4E0912A01F0E0E55D75
S1130570FE4F80818093BB0010922A0185E880930E
S1130580BC0081E085B90DC0E0912A01F0E0E55D91
S1130590FE4F80818093BB0085EC8093BC0082E099
S11305A085B980912A01833081F4E0912A01F0E039
S11305B0E55DFE4F80818093BB0010922A0185E89F
S11305C08093BC0083E085B9A0C0E0912A01F0E0EB
S11305D0E55DFE4F80818093BB0085EC8093BC0079
S11305E084E085B992C080912A01833081F4E0913E
S11305F02A01F0E0E55DFE4F80818093BB001092FC
S11306002A0185E88093BC0085E085B912C0E09199
S11306102A01F0E0E55DFE4F80818093BB0080916C
S11306202A018F5F80932A0185EC8093BC0086E0C9
S113063085B985EC8093BC0087E085B966C085ECFC
S11306408093BC0088E085B960C085EC8093BC00D1
S113065089E085B95AC085EC8093BC008AE085B9ED
S113066054C085EC8093BC008BE085B94EC085EC0A
S11306708093BC008CE085B948C0E0912F01F0E084
S11306808091BB00E05DFE4F808380912F018F5FDE
S113069080932F0180912F01843030F485EC809376
S11306A0BC008DE085B931C085E88093BC008EE044
S11306B085B92BC0EEDE85EC8093BC008FE085B954
S11306C024C0E7DE80E185B985EC8093BC001DC0C1
S11306D0E0DE85EC8093BC0081E185B916C082E040
S11306E091E0E9D182E185B910C085EC8093BC002A
S11306F083E185B90AC084E185B910922F0185ECA4
S11307008093BC0002C085E185B9ECEBF0E0808108
S113071080688083FF91EF91BF91AF919F918F91FA
S11307207F916F915F914F913F912F910F900BBEED
S11307300F900FBE0F901F9018955058BB27AA27F3
S11307400ED01CC10DD130F012D120F031F49F3FF6
S113075011F41EF402C10EF4E095E7FBF8C0E92F92
S11307601ED180F3BA17620773078407950718F040
S113077071F49EF536C10EF4E0950B2EBA2FA02D20
S11307800B01B90190010C01CA01A0011124FF273A
S1130790591B99F0593F50F4503E68F11A16F04035
S11307A0A22F232F342F4427585FF3CF4695379534
S11307B02795A795F0405395C9F77EF41F16BA0BF9
S11307C0620B730B840BBAF09150A1F0FF0FBB1FA7
S11307D0661F771F881FC2F70EC0BA0F621F731FF0
S11307E0841F48F4879577956795B795F7959E3F4D
S11307F008F0B3CF9395880F08F09927EE0F9795DB
S1130800879508950CD0BAC0B2D040F0A9D030F08A
S113081021F45F3F19F09BC05111E4C09EC0BFD0CA
S113082098F39923C9F35523B1F3951B550BBB27B3
S1130830AA2762177307840738F09F5F5F4F220F60
S1130840331F441FAA1FA9F333D00E2E3AF0E0E859
S113085030D091505040E695001CCAF729D0FE2FA5
S113086027D0660F771F881FBB1F26173707480737
S1130870AB07B0E809F0BB0B802DBF01FF279358ED
S11308805F4F2AF09E3F510568F061C0ABC05F3FE7
S1130890ECF3983EDCF3869577956795B795F795D5
S11308A09F5FC9F7880F911D9695879597F90895CD
S11308B0E1E0660F771F881FBB1F62177307840769
S11308C0BA0720F0621B730B840BBA0BEE1F88F778
S11308D0E0950895E89409C097FB3EF490958095BF
S11308E0709561957F4F8F4F9F4F9923A9F0F92FF2
S11308F096E9BB279395F695879577956795B79570
S1130900F111F8CFFAF4BB0F11F460FF1BC06F5F55
S11309107F4F8F4F9F4F16C0882311F096E911C067
S1130920772321F09EE8872F762F05C0662371F088
S113093096E8862F70E060E02AF09A95660F771F9C
S1130940881FDAF7880F9695879597F9089597F990
S11309509F6780E870E060E008959FEF80EC089561
S113096000240A941616170618060906089500248A
S11309700A9412161306140605060895092E039404
S1130980000C11F4882352F0BB0F40F4BF2B11F478
S113099060FF04C06F5F7F4F8F4F9F4F089557FDD7
S11309A09058440F551F59F05F3F71F04795880FD9
S11309B097FB991F61F09F3F79F087950895121670
S11309C013061406551FF2CF4695F1DF08C016161C
S11309D017061806991FF1CF8695710561050894CD
S11309E00895E894BB2766277727CB0197F90895E4
S11309F00BD0C4CFB5DF28F0BADF18F0952309F087
S1130A00A6CFABCF1124EECFCADFA0F3959FD1F3CD
S1130A10950F50E0551F629FF001729FBB27F00DA8
S1130A20B11D639FAA27F00DB11DAA1F649F6627FD
S1130A30B00DA11D661F829F2227B00DA11D621F4C
S1130A40739FB00DA11D621F839FA00D611D221F06
S1130A50749F3327A00D611D231F849F600D211DEA
S1130A60822F762F6A2F11249F5750408AF0E1F08D
S1130A7088234AF0EE0FFF1FBB1F661F771F881FD6
S1130A8091505040A9F79E3F510570F060CFAACF16
S1130A905F3FECF3983EDCF3869577956795B795C1
S1130AA0F795E7959F5FC1F7FE2B880F911D9695EB
S1130AB0879597F908950F931F93CF93DF93E09150
S1130AC03601F0913701238121FF1BC08C01D0E056
S1130AD0C0E0F80181918F01609136017091370176
S1130AE0DB011896ED91FC911997882331F0099553
S1130AF0892B79F3DFEFCFEFECCF8AE00995892BCF
S1130B0019F08FEF9FEF02C08D2F9C2FDF91CF91B3
S10D0B101F910F910895F894FFCF90
S1130B1A050254574920736C6176652064657669C9
S1130B2A636520646964206E6F7420726573706FE4
S1070B3A6E640000E1
S9030000FC
