S01900004E617669676174696F6E206D6F64756C652E7372656355
S113000045C0000060C000005EC000005CC000008D
S11300105AC0000058C0000056C0000054C0000080
S113002052C0000050C000004EC000004CC0000090
S11300304AC0000048C0000046C0000044C00000A0
S113004042C0000040C000003EC000003CC00000B0
S11300503AC0000038C0000036C0000034C00000C0
S113006032C0000030C0000055C000002CC00000A9
S11300702AC0000028C0000026C0000024C00000E0
S113008022C0000020C000001EC0000011241FBEBA
S1130090CFEFD0E4DEBFCDBF11E0A0E0B1E0ECE8EB
S11300A0F4E000E00BBF02C007900D92A232B1074A
S11300B0D9F721E0A2E2B1E001C01D92A333B20757
S11300C0E1F79DD1E1C1AAC185EC8093BC0084E82D
S11300D08093BA0078940895E0912201F0E0809131
S11300E0BB00E75DFE4F8083809122018F5F809388
S11300F0220180912201843020F485EC8093BC009D
S1130100089585E88093BC001092220181E08093D9
S1130110280108951F920F920FB60F9211240BB667
S11301200F922F933F934F935F936F937F938F938C
S11301309F93AF93BF93EF93FF938091B900887F10
S1130140803909F4E4C0B8F4803709F4B0C048F445
S1130150803609F4A0C0883609F4A3C08111F9C01F
S1130160EAC0803809F4AFC0883809F4C9C08837B8
S113017009F0EFC0A2C0803BD1F148F4803A09F401
S1130180E0C0883A99F0883909F0E3C0C7C0803CE0
S113019009F475C020F4883B09F44BC0DAC0883CEC
S11301A009F473C0883F09F4C0C0D3C0809123010F
S11301B0833081F4E0912301F0E0EC5DFE4F808117
S11301C08093BB001092230185E88093BC0081E0FA
S11301D085B90DC0E0912301F0E0EC5DFE4F808114
S11301E08093BB0085EC8093BC0082E085B980914C
S11301F02301833081F4E0912301F0E0EC5DFE4FB4
S113020080818093BB001092230185E88093BC0019
S113021083E085B9A0C0E0912301F0E0EC5DFE4FDE
S113022080818093BB0085EC8093BC0084E085B919
S113023092C080912301833081F4E0912301F0E0A6
S1130240EC5DFE4F80818093BB001092230185E812
S11302508093BC0085E085B912C0E0912301F0E0F1
S1130260EC5DFE4F80818093BB00809123018F5F02
S11302708093230185EC8093BC0086E085B985ECEE
S11302808093BC0087E085B966C085EC8093BC0090
S113029088E085B960C085EC8093BC0089E085B9AD
S11302A05AC085EC8093BC008AE085B954C085ECC3
S11302B08093BC008BE085B94EC085EC8093BC0074
S11302C08CE085B948C0E0912201F0E08091BB0048
S11302D0E75DFE4F8083809122018F5F809322012E
S11302E080912201843030F485EC8093BC008DE051
S11302F085B931C085E88093BC008EE085B92BC0F8
S1130300EBDE85EC8093BC008FE085B924C0E4DE8D
S113031080E185B985EC8093BC001DC0DDDE85ECF1
S11303208093BC0081E185B916C080E091E07CD067
S113033082E185B910C085EC8093BC0083E185B966
S11303400AC084E185B91092220185EC8093BC0037
S113035002C085E185B9ECEBF0E0808180688083A0
S1130360FF91EF91BF91AF919F918F917F916F9189
S11303705F914F913F912F910F900BBE0F900FBE45
S11303800F901F90189584B1886184B981B18FEF63
S113039081B985B5826085BD84B5836084BD0895C7
S11303A0F2DF92DE7894109228010895811107C03B
S11303B0611105C094B594BD94B594BD06C094B5BF
S11303C0906894BD94B5906294BD42130AC04111E3
S11303D004C092B19C7F92B90FC092B1936092B95C
S11303E00BC0222329F0411107C01198109A04C0B0
S11303F0442311F01098119A88BD67BD0895D0DF89
S1130400C9E2D1E0809128018130E1F72B814A8152
S113041069818881CBDF10922801F4CF1F920F925B
S11304200FB60F921124FFCF0F931F93CF93DF9337
S1130430E0912F01F0913001238121FF1BC08C0139
S1130440D0E0C0E0F80181918F0160912F0170919B
S11304503001DB011896ED91FC911997882331F056
S11304600995892B79F3DFEFCFEFECCF8AE009957B
S1130470892B19F08FEF9FEF02C08D2F9C2FDF91F6
S10F0480CF911F910F910895F894FFCFC5
S113048C54574920736C617665206465766963659D
S113049C20646964206E6F7420726573706F6E646F
S10504AC00004A
S9030000FC
