S01900004E617669676174696F6E206D6F64756C652E7372656355
S113000045C0000060C000005EC000005CC000008D
S11300105AC0000058C0000056C0000054C0000080
S113002052C0000050C000004EC000004CC0000090
S11300304AC0000048C0000046C0000044C00000A0
S113004042C0000040C000003EC000003CC00000B0
S11300503AC0000038C0000036C0000034C00000C0
S113006032C0000030C0000052C000002CC00000AC
S11300702AC0000028C0000026C0000024C00000E0
S113008022C0000020C000001EC0000011241FBEBA
S1130090CFEFD0E4DEBFCDBF11E0A0E0B1E0E4E6F5
S11300A0F5E000E00BBF02C007900D92A432B10747
S11300B0D9F721E0A4E2B1E001C01D92AF32B2074A
S11300C0E1F714D24DC29CCF85EC8093BC0084E848
S11300D08093BA0078940895E0912401F0E080912F
S11300E0BB00E85DFE4F8083809124018F5F809385
S11300F0240180912401811104C085EC8093BC000B
S1130100089585E88093BC001092240108951F92FD
S11301100F920FB60F9211240BB60F922F933F93A9
S11301204F935F936F937F938F939F93AF93BF93FB
S1130130EF93FF938091B900887F803909F4E4C07C
S1130140B8F4803709F4B0C048F4803609F4A0C08C
S1130150883609F4A3C08111F9C0EAC0803809F4D3
S1130160AFC0883809F4C9C0883709F0EFC0A2C00D
S1130170803BD1F148F4803A09F4E0C0883A99F020
S1130180883909F0E3C0C7C0803C09F475C020F485
S1130190883B09F44BC0DAC0883C09F473C0883F3B
S11301A009F4C0C0D3C080912501811110C0E09131
S11301B02501F0E0E95DFE4F80818093BB00109241
S11301C0250185E88093BC0081E085B90DC0E091EC
S11301D02501F0E0E95DFE4F80818093BB0085EC52
S11301E08093BC0082E085B980912501811110C003
S11301F0E0912501F0E0E95DFE4F80818093BB0032
S11302001092250185E88093BC0083E085B9A0C0E5
S1130210E0912501F0E0E95DFE4F80818093BB0011
S113022085EC8093BC0084E085B992C0809125015F
S1130230811110C0E0912501F0E0E95DFE4F80815D
S11302408093BB001092250185E88093BC0085E073
S113025085B912C0E0912501F0E0E95DFE4F80818F
S11302608093BB00809125018F5F8093250185ECED
S11302708093BC0086E085B985EC8093BC0087E060
S113028085B966C085EC8093BC0088E085B960C000
S113029085EC8093BC0089E085B95AC085EC8093D5
S11302A0BC008AE085B954C085EC8093BC008BE027
S11302B085B94EC085EC8093BC008CE085B948C0FC
S11302C0E0912401F0E08091BB00E85DFE4F808363
S11302D0809124018F5F80932401809124018111F6
S11302E006C085EC8093BC008DE085B931C085E8FB
S11302F08093BC008EE085B92BC0EEDE85EC809344
S1130300BC008FE085B924C0E7DE80E185B985ECC7
S11303108093BC001DC0E0DE85EC8093BC0081E1CD
S113032085B916C083E091E0EBD082E185B910C0B5
S113033085EC8093BC0083E185B90AC084E185B96A
S11303401092240185EC8093BC0002C085E185B93C
S1130350ECEBF0E0808180688083FF91EF91BF91A6
S1130360AF919F918F917F916F915F914F913F9149
S11303702F910F900BBE0F900FBE0F901F901895EA
S1130380A3DEFFCF84B1886184B981B18FEF81B9D5
S113039085B5826085BD84B5836084BD089580E899
S11303A0809301018093000184B5806884BD84B585
S11303B0806284BD82B1836082B980910001909192
S11303C0010197BD88BD089580E880930101809361
S11303D0000184B5806884BD84B5806284BD82B127
S11303E082B9809100019091010197BD88BD089563
S11303F080E8809301018093000184B5806884BD06
S113040084B5806284BD109A8091000190910101AD
S113041097BD88BD089580E8809301018093000111
S113042084B5806884BD84B5806284BD119A80914E
S113043000019091010197BD88BD089580E88093E3
S1130440010180E48093000184B5806884BD84B593
S1130450806284BD82B1836082B9809100019091F1
S1130460010197BD88BD089580E48093010180E86F
S11304708093000184B5806884BD84B5806284BDA6
S113048082B1836082B9809100019091010197BD8E
S113049088BD0895833091F028F4813049F082308A
S11304A051F00895853081F060F0863081F0089530
S11304B081E075CF089582E087CF089583E098CFD7
S11304C0089584E0A8CF089585E0B8CF089586E024
S11304D0CBCF0895789456DF53DF81E00895FADF97
S11304E0811103C083E0809326010895F3DFF7DFD1
S11304F0809128018093020180910201CBDFFCCF1F
S11305000F931F93CF93DF93E0912B01F0912C0174
S1130510238121FF1BC08C01D0E0C0E0F801819150
S11305208F0160912B0170912C01DB011896ED91E4
S1130530FC911997882331F00995892B79F3DFEF22
S1130540CFEFECCF8AE00995892B19F08FEF9FEF5D
S113055002C08D2F9C2FDF91CF911F910F91089591
S1070560F894FFCF39
S113056480800554574920736C61766520646576F0
S113057469636520646964206E6F742072657370A6
S10705846F6E64002E
S9030000FC
